:020000008C284A
:10000800FF00030E8301AC000A08AB008A017008E8
:10001800A1007D08A0000B1D23280B11643081006E
:1000280086140130A8002408280203182228423028
:10003800FD00FD0B1D280000A80A172886100B1CC0
:100048003E28A20A20302202031C2B280B10643001
:100058008E008F0106150130A80023082802031816
:100068003C284230FD00FD0B37280000A80A312843
:100078000611A2012108F0002008FD002B088A00C3
:0A0088002C0E8300FF0E7F0E09000E
:100092000E3083120313FD00FD0B4D2800000800F3
:0E00A2008312031327088A0026088200080034
:1000B00051208A110A128000840AA60A0319A70A8D
:0800C000F003031D582808009D
:1000C800831203139F01C0309F042509F0007008B4
:1000D80083169F051F179F1783122D08F000F00D38
:1000E8007010F00D7010F00D701070089F041F1440
:1000F80049201F151F1D822800007E281F101E087A
:10010800F100F00183161E08F0040030F104080025
:10011800EC2007308316031381008B178B1664308D
:1001280083128100213090000B1464308E008F01FF
:10013800803083169F00FF30850087018601831277
:10014800AD01642070088312A9007108AA00053067
:10015800F4007008F2007108F30074080319B92854
:10016800F30CF20CF313FF3EB22883127208A400BA
:100178000130AD00642070088312A9007108AA003C
:100188000530F4007008F2007108F30074080319D0
:10019800D228F30CF20CF313FF3ECB28831272081B
:1001A800A3000330FB000830FC007730FD00FD0B96
:0E01B800DB28FC0BDB28FB0BDB28A328E2284E
:1001D80022308400043083120313F000E830A600B4
:0801E8000030A70058200800B8
:0201D0000034F9
:0201D2000A34ED
:0201D4000A34EB
:0201D6000F34E4
:02400E007A3BFB
:00000001FF
